:100000000C942A000C9447000C9447000C94470071
:100010000C9447000C9447000C9447000C94470044
:100020000C9447000C9447000C9447000C94470034
:100030000C9447000C9447000C9447000C94470024
:100040000C9447000C9447000C9447000C94470014
:100050000C94470011241FBECFE5D8E0DEBFCDBF12
:1000600010E0A0E6B0E0E8EEF8E002C005900D92E6
:10007000A237B107D9F710E0A2E7B0E001C01D92A6
:10008000A337B107E1F70E94BD030C9472040C94EE
:1000900000008130E9F0813030F0823071F183303E
:1000A00009F054C03FC08AB321E030E0062E02C000
:1000B000220F331F0A94E2F720952823842F90E023
:1000C00002C0880F991F6A95E2F7282B2ABB089572
:1000D00087B321E030E0062E02C0220F331F0A94BE
:1000E000E2F720952823842F90E002C0880F991F03
:1000F0006A95E2F7282B27BB089584B321E030E00E
:10010000062E02C0220F331F0A94E2F720952823FF
:10011000842F90E002C0880F991F6A95E2F7282B80
:1001200024BB089581B321E030E0062E02C0220FE7
:10013000331F0A94E2F720952823842F90E002C011
:10014000880F991F6A95E2F7282B21BB089581300B
:10015000E9F0813030F0823071F1833009F054C021
:100160003FC08BB321E030E0062E02C0220F331FC8
:100170000A94E2F720952823842F90E002C0880F8C
:10018000991F6A95E2F7282B2BBB089588B321E0CD
:1001900030E0062E02C0220F331F0A94E2F72095AA
:1001A0002823842F90E002C0880F991F6A95E2F7F8
:1001B000282B28BB089585B321E030E0062E02C02D
:1001C000220F331F0A94E2F720952823842F90E012
:1001D00002C0880F991F6A95E2F7282B25BB089566
:1001E00082B321E030E0062E02C0220F331F0A94B2
:1001F000E2F720952823842F90E002C0880F991FF2
:100200006A95E2F7282B22BB0895813049F08130AE
:1002100028F0823039F08330B1F40DC089B303C0C7
:1002200086B301C083B390E002C0959587956A9527
:10023000E2F78170089580B390E002C095958795AC
:100240006A95E2F781700895662389F4813049F058
:10025000813028F0823039F08330F9F406C01ABAC0
:10026000089517BA089514BA089511BA089561301F
:10027000A1F4813051F0813028F0823049F0833090
:1002800061F409C08FEF8ABB08958FEF87BB089593
:100290008FEF84BB08958FEF81BB0895813049F0C3
:1002A000813028F0823039F0833041F406C06BBBD6
:1002B000089568BB089565BB089562BB08950895CD
:1002C000813049F0813028F0823039F0833041F4B8
:1002D00006C089B3089586B3089583B3089580B3A3
:1002E0000895813041F0813018F0823059F406C011
:1002F00080E062E005C080E063E002C080E064E08E
:100300000E94050190E0882309F491E0892F089567
:1003100080E062E040E00E94490080E063E040E06D
:100320000E94490080E064E040E00E94490080E0D3
:1003300062E041E00E94A70080E063E041E00E94AB
:10034000A70080E064E041E00E94A70008958130AA
:1003500059F0813018F0823099F40CC080E062E0EE
:1003600040E00E94490013C080E063E040E00E944A
:10037000490010C080E064E040E00E94490010C0E5
:10038000813041F0813018F0823079F409C080E08A
:1003900062E002C080E063E041E00E94A7000895AF
:1003A00080E064E041E00E94A7000895882319F0EE
:1003B000813091F409C0E62FF0E0E05AFF4F83E06E
:1003C00060810E944E010895E62FF0E0E05AFF4F51
:1003D00083E060810E944E010895882319F08130E6
:1003E00061F406C081E060E041E00E94A70008954A
:1003F00080E060E041E00E94A7000895882319F0A2
:10040000813061F406C081E060E040E00E94A70016
:10041000089580E060E040E00E94A700089583E036
:1004200061E00E94240183E061E00E94240181E0F8
:1004300060E041E00E94490080E060E041E00E940D
:1004400049000895882319F08130D1F40DC083E06C
:1004500061E00E94240181E060E041E00E944900E7
:1004600080E00E94ED01089583E061E00E94240194
:1004700081E060E041E00E94490081E00E94ED01DE
:1004800008958330C9F0843028F4813079F08230C7
:1004900080F409C08530B1F0853088F08630A9F04D
:1004A0008730F1F418C080E060E011C080E061E0C6
:1004B0000EC080E062E00BC080E063E008C080E036
:1004C00064E005C080E065E002C080E066E040E0F6
:1004D0000E94A700089580E067E040E00E94A70026
:1004E000089580E00E94410281E00E94410282E082
:1004F0000E94410283E00E94410284E00E94410286
:1005000085E00E94410286E00E94410287E00E944D
:10051000410208958330C9F0843028F4813079F0A5
:10052000823080F409C08530B1F0853088F08630A3
:10053000A9F08730F1F418C080E060E011C080E0DD
:1005400061E00EC080E062E00BC080E063E008C0C4
:1005500080E064E005C080E065E002C080E066E025
:1005600041E00E94A700089580E067E041E00E941A
:10057000A700089580E00E948A0281E00E948A021A
:1005800082E00E948A0283E00E948A0284E00E9444
:100590008A0285E00E948A0286E00E948A0287E041
:1005A0000E948A0208958330C9F0843028F4813093
:1005B00079F0823080F409C08530B1F0853088F060
:1005C0008630A9F08730F1F418C080E060E011C0F7
:1005D00080E061E00EC080E062E00BC080E063E09C
:1005E00008C080E064E005C080E065E002C080E013
:1005F00066E041E00E944900089580E067E041E044
:100600000E94490008958330C9F0843028F4813075
:1006100079F0823080F409C08530B1F0853088F0FF
:100620008630A9F08730D1F415C083E060E014C0B3
:1006300083E061E011C083E062E00EC083E063E02C
:100640000BC083E064E008C083E065E005C083E0A0
:1006500066E002C083E067E00E94050190E0882325
:1006600009F491E0892F0895833011F1843028F442
:10067000813091F08230B0F409C0853029F18530A5
:10068000E8F0863039F1873089F52AC083E060E0F0
:1006900040E00E9449003CC083E061E040E00E94ED
:1006A000490039C083E062E040E00E94490036C062
:1006B00083E063E040E00E94490033C083E064E0EF
:1006C00040E00E94490030C083E065E040E00E94C5
:1006D00049002DC083E066E040E00E9449002AC046
:1006E00083E067E040E00E9449002AC08330C9F0FF
:1006F000843028F4813079F0823080F409C085306C
:10070000B1F0853088F08630A9F08730F1F418C058
:1007100083E060E011C083E061E00EC083E062E04E
:100720000BC083E063E008C083E064E005C083E0C1
:1007300065E002C083E066E041E00E94A700089502
:1007400083E067E041E00E94A7000895882319F044
:10075000813091F409C0E62FF0E0E659FF4F83E0C5
:1007600060810E944E010895E62FF0E0E659FF4FA8
:1007700083E060810E944E0108959F92AF92BF92E4
:10078000CF92DF92EF92FF920F931F93CF93DF935D
:100790000E9488010E940F0298ECA92EB12C87E0DC
:1007A000982E82E00E947101882309F049C081E0FF
:1007B0000E947101813009F043C0F090720000E0A6
:1007C00010E0CF2CDD2433C0C430D10584F480E0A8
:1007D0000E94FE0180E06F2D0E94A60388E893E14D
:1007E000F5013197F1F70197D9F780E00FC081E06B
:1007F0000E94FE0181E06F2D0E94A60388E893E12C
:10080000F5013197F1F70197D9F781E00E94ED01E9
:1008100082E00E947101813039F40E9471018823C5
:1008200019F4C09372000CC00F5F1F4FF394E801DE
:10083000CC0DDD1DC830D1053CF210927200BDCF49
:1008400082E00E947101813009F0ABCF0E947101FA
:10085000882309F0A6CF10917200C0E0D0E0C12E2D
:10086000DD247601EC1AFD0A24E0E216F10484F09E
:1008700081E00E94FE0181E0612F0E94A60388E8CA
:1008800093E1F5013197F1F70197D9F781E00FC0B6
:1008900080E00E94FE0180E0612F0E94A60388E8AC
:1008A00093E1F5013197F1F70197D9F780E00E94C4
:1008B000ED0182E00E947101882341F481E00E94F1
:1008C0007101813019F4E09272006BCF21961150C2
:1008D000C6018C1B9D0B8F5F9F4F09F0C2CF90927A
:0808E0007200B9CFF894FFCFBC
:1008E8003F065B4F666D7D077F6F010204080810A5
:0208F8002001DD
:00000001FF
