:100000000C942A000C9447000C9447000C94470071
:100010000C9447000C9447000C9447000C94470044
:100020000C9447000C9447000C9447000C94470034
:100030000C9447000C9447000C9447000C94470024
:100040000C9447000C9447000C9447000C94470014
:100050000C94470011241FBECFE5D8E0DEBFCDBF12
:1000600010E0A0E6B0E0E0E0F0E202C005900D9202
:10007000AA37B107D9F710E0AAE7B0E001C01D9296
:10008000AB37B107E1F70E94440D0C94FE0F0C94BE
:100090000000EF92FF920F931F937B018C0120E0F1
:1000A00030E040E05FE40E94490388238CF0C801FF
:1000B000B70120E030E040E05FE40E94C1010E940F
:1000C000A9039B01AC01205030404040504806C07D
:1000D000C801B7010E94A9039B01AC01B901CA0183
:1000E0001F910F91FF90EF900895A0E0B0E0EBE733
:1000F000F0E00C94C70FDC012B01FA019C919230C7
:1001000008F439C1EB018881823008F433C194309E
:1001100069F4843009F02FC111969C91119789815F
:10012000981709F428C1A0E6B0E025C1843009F48D
:1001300021C18230A9F4923009F01DC19A01AD01AC
:1001400088E0EA010990AE01E90109929E0181501F
:10015000C1F7E201898111969C918923818308C1AD
:10016000923009F407C112962D903C901397EB0141
:100170008A819B811496AD90BD90CD90DC901797AD
:10018000EC80FD800E811F819101281B390BB90184
:1001900037FF04C066277727621B730B6032710537
:1001A0000CF061C0121613066CF537014801062EDB
:1001B00004C096948794779467940A94D2F721E0C8
:1001C00030E040E050E004C0220F331F441F551FB1
:1001D0006A95D2F721503040404050402E213F21B7
:1001E00040235123211531054105510521F021E01E
:1001F00030E040E050E079018A01E628F72808293C
:1002000019293CC0232BD1F1260E371E350146019A
:10021000062E04C096948794779467940A94D2F734
:1002200021E030E040E050E004C0220F331F441FC3
:10023000551F6A95D2F721503040404050402A2146
:100240003B214C215D21211531054105510521F04E
:1002500021E030E040E050E059016A01A628B728CB
:10026000C828D9280BC0821593052CF01C01AA249C
:10027000BB24650103C0EE24FF24870111969C91E5
:10028000D20111968C91981709F445C0992339F041
:10029000A80197012A193B094C095D0906C0A6016E
:1002A00095012E193F09400B510B57FD08C01182D3
:1002B0003382228224833583468357831DC081E0A5
:1002C00081833382228288279927DC01821B930B4A
:1002D000A40BB50B84839583A683B7830DC0220F2F
:1002E000331F441F551F24833583468357838281E0
:1002F000938101979383828324813581468157813D
:10030000DA01C9010197A109B1098F5F9F4FAF4F72
:10031000BF4328F30BC0918333822282EA0CFB1C7B
:100320000C1D1D1DE482F5820683178383E0808304
:10033000248135814681578157FF1AC0C901AA27F8
:1003400097FDA095BA2F81709070A070B0705695EF
:10035000479537952795822B932BA42BB52B848318
:100360009583A683B7838281938101969383828349
:10037000DF0101C0D201CD01CDB7DEB7E2E10C94BF
:10038000E30FA0E2B0E0E7ECF1E00C94D30F698357
:100390007A838B839C832D833E834F835887E9E048
:1003A000EE2EF12CEC0EFD1ECE010196B7010E943F
:1003B000D2048E010F5E1F4FCE010596B8010E9438
:1003C000D2048A8991E089278A8BC701B801AE01DE
:1003D000475E5F4F0E9475000E94FD03A096E6E015
:1003E0000C94EF0FA0E2B0E0E8EFF1E00C94D30F33
:1003F00069837A838B839C832D833E834F835887C5
:10040000F9E0EF2EF12CEC0EFD1ECE010196B701A6
:100410000E94D2048E010F5E1F4FCE010596B801D7
:100420000E94D204C701B801AE01475E5F4F0E942F
:1004300075000E94FD03A096E6E00C94EF0FA0E289
:10044000B0E0E5E2F2E00C94C70F69837A838B8316
:100450009C832D833E834F835887CE010196BE0136
:10046000675F7F4F0E94D204CE010596BE016F5E8A
:100470007F4F0E94D2049985923088F0898982301A
:10048000C8F0943019F4823051F404C0843029F457
:10049000923081F480E690E0C6C0923049F420E0CA
:1004A0009A858A89981321E02A87CE010996BBC0D4
:1004B000823049F420E09A858A89981321E02A8BBA
:1004C000CE014196B0C02D843E844F8458886D88FB
:1004D0007E888F88988CEE24FF248701AA24BB2471
:1004E000650140E050E060E070E0E0E0F0E0C10174
:1004F00081709070892BE9F0E60CF71C081D191D1E
:100500009A01AB012A0D3B1D4C1D5D1D80E090E062
:10051000A0E0B0E0E614F7040805190520F481E036
:1005200090E0A0E0B0E0BA01A901480F591F6A1F8E
:100530007B1FAA0CBB1CCC1CDD1C97FE08C081E0F5
:1005400090E0A0E0B0E0A82AB92ACA2ADB2A3196B6
:10055000E032F10549F0660C771C881C991C569412
:10056000479437942794C3CFFA85EA892B893C892D
:100570008B859C85280F391F2E5F3F4F17C0CA01FE
:1005800081709070892B61F016950795F794E79428
:1005900080E090E0A0E0B0E8E82AF92A0A2B1B2BC3
:1005A00076956795579547952F5F3F4F77FDE7CF36
:1005B0000CC0440F551F661F771F17FD4160EE0CDE
:1005C000FF1C001F111F21503040403090E05907A0
:1005D00090E0690790E4790760F32B8F3C8FDB0193
:1005E000CA018F779070A070B07080349105A1051A
:1005F000B10561F447FD0AC0E114F10401051105DC
:1006000029F0405C5F4F6F4F7F4F40781A8EFE1786
:1006100011F081E08A8F4D8F5E8F6F8F78A383E01A
:10062000898FCE0149960E94FD03A096E2E10C94C9
:10063000E30FA8E1B0E0EFE1F3E00C94D30F69839E
:100640007A838B839C832D833E834F83588789E0F5
:10065000E82EF12CEC0EFD1ECE010196B7010E9492
:10066000D2048E010F5E1F4FCE010596B8010E9485
:10067000D2048985823040F08989823028F0C70110
:10068000B8010E944A0501C08FEF6896E6E00C941D
:10069000EF0FA8E1B0E0EFE4F3E00C94D30F69832F
:1006A0007A838B839C832D833E834F83588789E095
:1006B000E82EF12CEC0EFD1ECE010196B7010E9432
:1006C000D2048E010F5E1F4FCE010596B8010E9425
:1006D000D2048985823040F08989823028F0C701B0
:1006E000B8010E944A0501C08FEF6896E6E00C94BD
:1006F000EF0FA8E1B0E0EFE7F3E00C94D30F6983CC
:100700007A838B839C832D833E834F83588789E034
:10071000E82EF12CEC0EFD1ECE010196B7010E94D1
:10072000D2048E010F5E1F4FCE010596B8010E94C4
:10073000D2048985823040F08989823028F0C7014F
:10074000B8010E944A0501C081E06896E6E00C9479
:10075000EF0FACE0B0E0EFEAF3E00C94D70F698361
:100760007A838B839C83CE010196BE016B5F7F4FA2
:100770000E94D2048D81823061F1823050F1843048
:1007800021F48E81882351F12EC02F81388537FDC9
:1007900020C06E812F3131051CF06623F9F023C093
:1007A0008EE190E0821B930B29853A854B855C8511
:1007B00004C056954795379527958A95D2F76623B5
:1007C000B1F050954095309521953F4F4F4F5F4F79
:1007D0000EC020E030E040E050E009C02FEF3FEFD6
:1007E0004FEF5FE704C020E030E040E050E8B9019F
:1007F000CA012C96E2E00C94F30FDF92EF92FF9285
:100800000F931F93FC01E480F58006811781D1804E
:100810008081823048F480E090E0A0E1B0E0E82AF6
:10082000F92A0A2B1B2BA5C0843009F49FC0823003
:1008300021F4EE24FF24870105C0E114F104010531
:10084000110519F4E0E0F0E096C0628173819FEF3A
:10085000623879070CF05BC022E83FEF261B370BAC
:100860002A3131052CF020E030E040E050E02AC091
:10087000B801A701022E04C0769567955795479554
:100880000A94D2F781E090E0A0E0B0E004C0880FC5
:10089000991FAA1FBB1F2A95D2F70197A109B10979
:1008A0008E219F21A023B1230097A105B10521F03E
:1008B00081E090E0A0E0B0E09A01AB01282B392B59
:1008C0004A2B5B2BDA01C9018F779070A070B07052
:1008D00080349105A105B10539F427FF09C0205CDA
:1008E0003F4F4F4F5F4F04C0215C3F4F4F4F5F4F13
:1008F000E0E0F0E02030A0E03A07A0E04A07A0E402
:100900005A0710F0E1E0F0E079018A0127C0603871
:10091000710564F5FB01E158FF4FD801C7018F77DE
:100920009070A070B07080349105A105B10539F4C4
:10093000E7FE0DC080E490E0A0E0B0E004C08FE3EB
:1009400090E0A0E0B0E0E80EF91E0A1F1B1F17FFA1
:1009500005C016950795F794E794319687E01695AC
:100960000795F794E7948A95D1F705C0EE24FF2404
:100970008701EFEFF0E06E2F679566276795902F60
:100980009F77D794DD24D7948E2F8695492F462BB9
:10099000582F5D29B701CA011F910F91FF90EF9069
:1009A000DF900895FC01DB01408151812281622F9B
:1009B0006F7770E0221F2227221F9381892F880FD3
:1009C000822B282F30E0991F9927991F11969C930D
:1009D000119721153105A9F54115510561057105DD
:1009E00011F482E037C082E89FEF13969C938E93B8
:1009F00012979A01AB0167E0220F331F441F551F66
:100A00006A95D1F783E08C930DC0220F331F441FEA
:100A1000551F12968D919C911397019713969C9355
:100A20008E931297203080E0380780E0480780E4FA
:100A3000580758F314962D933D934D935C93179755
:100A400008952F3F310579F4411551056105710570
:100A500019F484E08C93089564FF03C081E08C93C3
:100A600012C01C9210C02F57304013963C932E9307
:100A7000129783E08C9387E0440F551F661F771F02
:100A80008A95D1F7706414964D935D936D937C9322
:100A9000179708951F93DC01FB019C91923008F495
:100AA00047C08081823008F443C0943051F41196DD
:100AB0001C91843099F58181682F70E0611B710968
:100AC0003FC0843021F0923031F48230B9F181811D
:100AD000882389F12DC011961C9111978230F1F075
:100AE00081811817D9F412962D913C911397828128
:100AF00093818217930794F028173907BCF0149656
:100B00008D919D910D90BC91A02D248135814681C0
:100B10005781281739074A075B0718F4112341F05A
:100B20000AC082179307A407B50740F4112319F0F0
:100B300061E070E005C06FEF7FEF02C060E070E041
:100B4000CB011F910895DF93CF9300D000D00F9277
:100B5000CDB7DEB789836A834B838981282F30E044
:100B60003D832C836C817D8161307105D1F18C8155
:100B70009D818230910534F42C813D812115310510
:100B800071F094C06C817D816230710509F44BC0B5
:100B90008C819D818330910509F467C087C0AAE3E9
:100BA000B0E0EAE3F0E08081482F8A81282F30E02E
:100BB00081E090E002C0880F991F2A95E2F78095A6
:100BC00048238B81282F30E08A81882F90E0B9015B
:100BD00002C0660F771F8A95E2F7CB01842B8C93B6
:100BE00065C0A7E3B0E0E7E3F0E08081482F8A81A9
:100BF000282F30E081E090E002C0880F991F2A95ED
:100C0000E2F7809548238B81282F30E08A81882F56
:100C100090E0B90102C0660F771F8A95E2F7CB0119
:100C2000842B8C9343C0A4E3B0E0E4E3F0E0808144
:100C3000482F8A81282F30E081E090E002C0880FA1
:100C4000991F2A95E2F7809548238B81282F30E061
:100C50008A81882F90E0B90102C0660F771F8A95BC
:100C6000E2F7CB01842B8C9321C0A1E3B0E0E1E358
:100C7000F0E08081482F8A81282F30E081E090E0E9
:100C800002C0880F991F2A95E2F7809548238B812F
:100C9000282F30E08A81882F90E0B90102C0660FCA
:100CA000771F8A95E2F7CB01842B8C930F900F90DE
:100CB0000F900F900F90CF91DF910895DF93CF9316
:100CC00000D000D00F92CDB7DEB789836A834B8303
:100CD0008981282F30E03D832C836C817D816130B8
:100CE0007105D1F18C819D818230910534F42C8184
:100CF0003D812115310571F094C06C817D81623098
:100D0000710509F44BC08C819D818330910509F4F4
:100D100067C087C0ABE3B0E0EBE3F0E08081482F31
:100D20008A81282F30E081E090E002C0880F991F6F
:100D30002A95E2F7809548238B81282F30E08A811D
:100D4000882F90E0B90102C0660F771F8A95E2F7FD
:100D5000CB01842B8C9365C0A8E3B0E0E8E3F0E01E
:100D60008081482F8A81282F30E081E090E002C006
:100D7000880F991F2A95E2F7809548238B81282FA9
:100D800030E08A81882F90E0B90102C0660F771F9A
:100D90008A95E2F7CB01842B8C9343C0A5E3B0E0A6
:100DA000E5E3F0E08081482F8A81282F30E081E060
:100DB00090E002C0880F991F2A95E2F7809548239A
:100DC0008B81282F30E08A81882F90E0B90102C002
:100DD000660F771F8A95E2F7CB01842B8C9321C095
:100DE000A2E3B0E0E2E3F0E08081482F8A81282F7F
:100DF00030E081E090E002C0880F991F2A95E2F769
:100E0000809548238B81282F30E08A81882F90E0BD
:100E1000B90102C0660F771F8A95E2F7CB01842BD8
:100E20008C930F900F900F900F900F90CF91DF91B8
:100E30000895DF93CF9300D000D00F92CDB7DEB7E7
:100E40008A836B838A81282F30E03D832C834C81F9
:100E50005D814130510541F18C819D818230910548
:100E600034F42C813D812115310561F052C04C8153
:100E70005D814230510551F18C819D818330910516
:100E8000B9F147C0E9E3F0E08081282F30E08B81A1
:100E9000882F90E0A90102C0559547958A95E2F701
:100EA000CA018170898335C0E6E3F0E08081282F94
:100EB00030E08B81882F90E0A90102C055954795BD
:100EC0008A95E2F7CA018170898323C0E3E3F0E0E9
:100ED0008081282F30E08B81882F90E0A90102C00B
:100EE000559547958A95E2F7CA018170898311C0AB
:100EF000E0E3F0E08081282F30E08B81882F90E0C4
:100F0000A90102C0559547958A95E2F7CA018170FB
:100F1000898389810F900F900F900F900F90CF9140
:100F2000DF910895DF93CF9300D000D000D0CDB7EC
:100F3000DEB789836A838A81882399F58981282F7E
:100F400030E03E832D838D819E8181309105D1F0EB
:100F50002D813E81223031052CF48D819E810097B8
:100F600061F054C02D813E812230310581F08D81A8
:100F70009E818330910581F049C0EAE3F0E08A81E7
:100F8000808344C0E7E3F0E08A8180833FC0E4E3EC
:100F9000F0E08A8180833AC0E1E3F0E08A818083D7
:100FA00035C08A81813091F58981282F30E03C83DA
:100FB0002B838B819C8181309105D1F02B813C81E9
:100FC000223031052CF48B819C81009761F01EC08A
:100FD0002B813C812230310581F08B819C818330D3
:100FE000910581F013C0EAE3F0E08FEF80830EC03B
:100FF000E7E3F0E08FEF808309C0E4E3F0E08FEFF8
:10100000808304C0E1E3F0E08FEF808326960FB683
:10101000F894DEBF0FBECDBFCF91DF910895DF936F
:10102000CF9300D000D0CDB7DEB789836A838981A2
:10103000282F30E03C832B838B819C81813091056C
:10104000D1F02B813C81223031052CF48B819C81A5
:10105000009761F01EC02B813C812230310581F068
:101060008B819C818330910581F013C0EBE3F0E02C
:101070008A8180830EC0E8E3F0E08A81808309C022
:10108000E5E3F0E08A81808304C0E2E3F0E08A8156
:1010900080830F900F900F900F90CF91DF91089564
:1010A000DF93CF9300D0CDB7DEB789836A838A817F
:1010B000282F30E081E090E0022E02C0880F991FB7
:1010C0000A94E2F7982F8981892789830F900F90DE
:1010D000CF91DF910895DF93CF9300D000D0CDB7AB
:1010E000DEB78A838A81282F30E03C832B838B8173
:1010F0009C8181309105D1F02B813C8122303105DA
:101100002CF48B819C81009761F01EC02B813C8167
:101110002230310581F08B819C818330910581F0F3
:1011200013C0E9E3F0E0808189830EC0E6E3F0E0DC
:101130008081898309C0E3E3F0E08081898304C072
:10114000E0E3F0E08081898389810F900F900F9018
:101150000F90CF91DF910895DF93CF9300D000D00F
:101160000F92CDB7DEB789838981282F30E03D8388
:101170002C838C819D818130910579F02C813D817A
:101180002230310581F08C819D81009789F480E0C7
:1011900062E040E00E94A3050BC080E063E040E015
:1011A0000E94A30505C080E064E040E00E94A30522
:1011B0008981282F30E03B832A838A819B8181307B
:1011C000910579F02A813B812230310581F08A81B5
:1011D0009B81009789F480E062E041E00E945E0616
:1011E0000BC080E063E041E00E945E0605C080E045
:1011F00064E041E00E945E060F900F900F900F9008
:101200000F90CF91DF910895DF93CF93CDB7DEB7E5
:1012100080E062E040E00E94A30580E063E040E0FF
:101220000E94A30580E064E040E00E94A30580E006
:1012300062E041E00E945E0680E063E041E00E94DF
:101240005E0680E064E041E00E945E06CF91DF919F
:101250000895DF93CF9300D000D00F92CDB7DEB7C3
:101260008B838B81282F30E03D832C838C819D8163
:101270008130910579F02C813D812230310581F05A
:101280008C819D81009789F480E062E00E941907BB
:101290008A830BC080E063E00E9419078A8305C03F
:1012A00080E064E00E9419078A838A81882319F408
:1012B00081E0898301C0198289810F900F900F907E
:1012C0000F900F90CF91DF910895DF93CF9300D0CF
:1012D0000F92CDB7DEB789838981282F30E03B8319
:1012E0002A838A819B81009731F02A813B812130BA
:1012F000310571F019C083E061E00E94920781E03E
:1013000060E041E00E94A30580E00E94DA090CC081
:1013100083E061E00E94920781E060E041E00E948A
:10132000A30581E00E94DA090F900F900F90CF91F2
:10133000DF910895DF93CF93CDB7DEB783E061E00F
:101340000E94920783E061E00E94920781E060E0E2
:1013500041E00E94A30580E060E041E00E94A30517
:10136000CF91DF910895DF93CF9300D00F92CDB747
:10137000DEB789838981282F30E03B832A838A81E5
:101380009B81009731F02A813B812130310539F072
:101390000BC081E060E040E00E945E0605C080E096
:1013A00060E040E00E945E060F900F900F90CF919A
:1013B000DF910895DF93CF9300D00F92CDB7DEB7C2
:1013C00089838981282F30E03B832A838A819B810E
:1013D000009731F02A813B812130310539F00BC073
:1013E00081E060E041E00E945E0605C080E060E0D0
:1013F00041E00E945E060F900F900F90CF91DF9119
:101400000895DF93CF9300D000D0CDB7DEB78983A6
:101410006A838981282F30E03C832B838B819C81D8
:10142000009731F02B813C812130310569F017C0E4
:101430008A81882F90E0FC01E859FF4F908183E07A
:10144000692F0E940F080BC08A81882F90E0FC0151
:10145000E859FF4F908183E0692F0E940F080F9099
:101460000F900F900F90CF91DF910895DF93CF935E
:1014700000D00F92CDB7DEB789838981282F30E065
:101480003B832A838A819B8183309105D9F12A810C
:101490003B81243031057CF48A819B818130910528
:1014A00029F12A813B812230310534F58A819B81E3
:1014B0000097B1F044C02A813B812530310571F19C
:1014C0008A819B81853091051CF12A813B812630E0
:1014D000310551F18A819B818730910559F12FC0E7
:1014E00080E060E041E00E94A30529C080E061E067
:1014F00041E00E94A30523C080E062E041E00E9439
:10150000A3051DC080E063E041E00E94A30517C071
:1015100080E064E041E00E94A30511C080E065E046
:1015200041E00E94A3050BC080E066E041E00E941C
:10153000A30505C080E067E041E00E94A3050F908D
:101540000F900F90CF91DF910895DF93CF9300D04C
:101550000F92CDB7DEB789838981282F30E03B8396
:101560002A838A819B8183309105D9F12A813B812D
:10157000243031057CF48A819B818130910529F1E9
:101580002A813B812230310534F58A819B81009785
:10159000B1F044C02A813B812530310571F18A8147
:1015A0009B81853091051CF12A813B8126303105D4
:1015B00051F18A819B818730910559F12FC080E0DC
:1015C00060E041E00E945E0629C080E061E041E009
:1015D0000E945E0623C080E062E041E00E945E0659
:1015E0001DC080E063E041E00E945E0617C080E01D
:1015F00064E041E00E945E0611C080E065E041E0E9
:101600000E945E060BC080E066E041E00E945E063C
:1016100005C080E067E041E00E945E060F900F90F9
:101620000F90CF91DF910895DF93CF9300D00F9269
:10163000CDB7DEB789838981282F30E03B832A83A9
:101640008A819B8183309105D9F12A813B812430A5
:1016500031057CF48A819B818130910529F12A81B1
:101660003B812230310534F58A819B810097B1F0AE
:1016700044C02A813B812530310571F18A819B81EB
:10168000853091051CF12A813B812630310551F1CD
:101690008A819B818730910559F12FC080E060E0FD
:1016A00040E00E945E0629C080E061E040E00E94C8
:1016B0005E0623C080E062E040E00E945E061DC03E
:1016C00080E063E040E00E945E0617C080E064E0D6
:1016D00040E00E945E0611C080E065E040E00E94AC
:1016E0005E060BC080E066E040E00E945E0605C03A
:1016F00080E067E040E00E945E060F900F900F9040
:10170000CF91DF910895DF93CF93CDB7DEB780E01F
:101710000E94A50A81E00E94A50A82E00E94A50A13
:1017200083E00E94A50A84E00E94A50A85E00E9449
:10173000A50A86E00E94A50A87E00E94A50ACF912B
:10174000DF910895DF93CF93CDB7DEB780E00E949D
:10175000140B81E00E94140B82E00E94140B83E0C2
:101760000E94140B84E00E94140B85E00E94140B6D
:1017700086E00E94140B87E00E94140BCF91DF914A
:101780000895DF93CF9300D000D00F92CDB7DEB78E
:1017900089838981282F30E03D832C838C819D8132
:1017A00083309105D9F12C813D81243031057CF4C1
:1017B0008C819D818130910529F12C813D812230E0
:1017C000310534F58C819D810097B1F044C02C81A6
:1017D0003D812530310571F18C819D8185309105E8
:1017E0001CF12C813D812630310551F18C819D8188
:1017F0008730910559F12FC083E060E040E00E94FE
:10180000A30529C083E061E040E00E94A30523C056
:1018100083E062E040E00E94A3051DC083E063E036
:1018200040E00E94A30517C083E064E040E00E940E
:10183000A30511C083E065E040E00E94A3050BC052
:1018400083E066E040E00E94A30505C083E067E016
:1018500040E00E94A3058981282F30E03B832A8342
:101860008A819B8183309105D9F12A813B81243083
:1018700031057CF48A819B818130910529F12A818F
:101880003B812230310534F58A819B810097B1F08C
:1018900044C02A813B812530310571F18A819B81C9
:1018A000853091051CF12A813B812630310551F1AB
:1018B0008A819B818730910559F12FC083E060E0D8
:1018C00041E00E945E0629C083E061E041E00E94A1
:1018D0005E0623C083E062E041E00E945E061DC018
:1018E00083E063E041E00E945E0617C083E064E0AD
:1018F00041E00E945E0611C083E065E041E00E9485
:101900005E060BC083E066E041E00E945E0605C013
:1019100083E067E041E00E945E060F900F900F9019
:101920000F900F90CF91DF910895DF93CF9300D068
:1019300000D00F92CDB7DEB78B838B81282F30E09C
:101940003D832C838C819D8183309105D9F12C813D
:101950003D81243031057CF48C819D81813091055D
:1019600029F12C813D812230310534F58C819D8116
:101970000097B1F044C02C813D812530310571F1D3
:101980008C819D81853091051CF12C813D81263013
:10199000310551F18C819D818730910559F12FC01E
:1019A00083E060E00E9419078A8329C083E061E038
:1019B0000E9419078A8323C083E062E00E9419070E
:1019C0008A831DC083E063E00E9419078A8317C0E1
:1019D00083E064E00E9419078A8311C083E065E018
:1019E0000E9419078A830BC083E066E00E941907F2
:1019F0008A8305C083E067E00E9419078A838A8191
:101A0000882319F481E0898301C0198289810F90AC
:101A10000F900F900F900F90CF91DF910895DF936B
:101A2000CF9300D000D0CDB7DEB789836A83898198
:101A3000282F30E03C832B838B819C81009731F0F1
:101A40002B813C812130310569F017C08A81882FB4
:101A500090E0FC01EE58FF4F908183E0692F0E94D7
:101A60000F080BC08A81882F90E0FC01EE58FF4FD1
:101A7000908183E0692F0E940F080F900F900F90C4
:101A80000F90CF91DF910895DF93CF93CDB7DEB75D
:101A9000EC970FB6F894DEBF0FBECDBF0E940409CD
:101AA0000E949A0981E090E09AAF89AF82E00E949B
:101AB0002909882309F030C181E00E942909813079
:101AC00009F02AC180917A00882F90E09CAF8BAFFB
:101AD00016C18BAD9CAD843091050CF07EC080E0CA
:101AE0000E94B3099BAD80E0692F0E940F0D80E03A
:101AF00090E0AAEFB3E48DAB9EABAFABB8AF6DA9EE
:101B00007EA98FA998AD20E030E04AEF54E40E940E
:101B10001F02DC01CB0189AB9AABABABBCAB69A9B3
:101B20007AA98BA99CA920E030E040E85FE30E94FD
:101B3000790388232CF481E090E098AB8FA73FC015
:101B400069A97AA98BA99CA920E03FEF4FE757E448
:101B50000E94190318164CF56DA97EA98FA998AD9E
:101B600020E030E040E251E40E941F02DC01CB01A2
:101B7000BC01CD010E944900DC01CB0198AB8FA7CD
:101B80000FC088EC90E09EA78DA78DA59EA501971C
:101B9000F1F79EA78DA78FA598A9019798AB8FA75E
:101BA0008FA598A9009769F714C069A97AA98BA98C
:101BB0009CA90E944900DC01CB0198AB8FA78FA59F
:101BC00098A99CA78BA78BA59CA50197F1F79CA72B
:101BD0008BA780E00E94DA097DC081E00E94B309F2
:101BE0009BAD81E0692F0E940F0D80E090E0AAEF8D
:101BF000B3E48FA398A7A9A7BAA76FA178A589A5D1
:101C00009AA520E030E04AEF54E40E941F02DC0174
:101C1000CB018BA39CA3ADA3BEA36BA17CA18DA183
:101C20009EA120E030E040E85FE30E947903882332
:101C30002CF481E090E09AA389A33FC06BA17CA122
:101C40008DA19EA120E03FEF4FE757E40E941903CA
:101C500018164CF56FA178A589A59AA520E030E06B
:101C600040E251E40E941F02DC01CB01BC01CD0126
:101C70000E944900DC01CB019AA389A30FC088EC24
:101C800090E098A38F8F8F8D98A10197F1F798A37B
:101C90008F8F89A19AA101979AA389A389A19AA15B
:101CA000009769F714C06BA17CA18DA19EA10E9431
:101CB0004900DC01CB019AA389A389A19AA19E8F37
:101CC0008D8F8D8D9E8D0197F1F79E8F8D8F81E089
:101CD0000E94DA0982E00E942909813059F481E0EA
:101CE0000E942909882331F48BAD80937A001AAEC3
:101CF00019AE0BC08BAD9CAD01969CAF8BAF8BAD7D
:101D00009CAD883091050CF4E4CE89AD9AAD009776
:101D100019F010927A00D6CE81E090E09AAF89AFA8
:101D200082E00E942909813009F0BCCE81E00E9446
:101D30002909882309F0B6CE80917A00882F90E097
:101D40009CAF8BAF16C18BAD9CAD843091050CF46C
:101D50007EC081E00E94B3099BAD81E0692F0E94A3
:101D60000F0D80E090E0AAEFB3E4898F9A8FAB8FDC
:101D7000BC8F698D7A8D8B8D9C8D20E030E04AEF91
:101D800054E40E941F02DC01CB018D8B9E8BAF8B34
:101D9000B88F6D897E898F89988D20E030E040E88A
:101DA0005FE30E94790388232CF481E090E09C8B10
:101DB0008B8B3FC06D897E898F89988D20E03FEFA6
:101DC0004FE757E40E94190318164CF5698D7A8D78
:101DD0008B8D9C8D20E030E040E251E40E941F0298
:101DE000DC01CB01BC01CD010E944900DC01CB012B
:101DF0009C8B8B8B0FC088EC90E09A8B898B8989A8
:101E00009A890197F1F79A8B898B8B899C89019725
:101E10009C8B8B8B8B899C89009769F714C06D898B
:101E20007E898F89988D0E944900DC01CB019C8BB3
:101E30008B8B8B899C89988B8F878F85988901974D
:101E4000F1F7988B8F8781E00E94DA097DC080E0EE
:101E50000E94B3099BAD80E0692F0E940F0D80E0C6
:101E600090E0AAEFB3E48B879C87AD87BE876B8534
:101E70007C858D859E8520E030E04AEF54E40E9409
:101E80001F02DC01CB018F839887A987BA876F81F6
:101E9000788589859A8520E030E040E85FE30E94FC
:101EA000790388232CF481E090E09E838D833FC0EA
:101EB0006F81788589859A8520E03FEF4FE757E469
:101EC0000E94190318164CF56B857C858D859E85BF
:101ED00020E030E040E251E40E941F02DC01CB012F
:101EE000BC01CD010E944900DC01CB019E838D83A2
:101EF0000FC088EC90E09C838B838B819C81019741
:101F0000F1F79C838B838D819E8101979E838D83C6
:101F10008D819E81009769F714C06F8178858985CE
:101F20009A850E944900DC01CB019E838D838D81BF
:101F30009E819A83898389819A810197F1F79A8397
:101F4000898380E00E94DA0982E00E9429098823BF
:101F500059F481E00E942909813031F48BAD8093DE
:101F60007A001AAE19AE0AC08BAD9CAD01979CAF3A
:101F70008BAF8BAD9CAD99230CF0E5CE89AD9AADBE
:101F8000009709F48FCD87E080937A00D5CE2F9209
:101F90003F924F925F926F927F928F929F92AF92F9
:101FA000BF92CF92DF92EF92FF920F931F93CF9346
:101FB000DF93CDB7DEB7CA1BDB0B0FB6F894DEBFDD
:101FC0000FBECDBF09942A88398848885F846E8403
:101FD0007D848C849B84AA84B984C884DF80EE804D
:101FE000FD800C811B81AA81B981CE0FD11D0FB656
:101FF000F894DEBF0FBECDBFED010895F894FFCF7A
:1020000000000000000000003F065B4F666D7D078A
:0A2010007F6F010204080810200190
:00000001FF
